:020000040800F2
:10000000606E042069030008778C0008F32B000859
:10001000758C000829090008699500080000000097
:10002000000000000000000000000000AD02000819
:10003000E10B00080000000001030008C98E000861
:100040008303000883030008830300088303000878
:100050008303000883030008830300088303000868
:100060008303000883030008830300088303000858
:100070008303000883030008830300088303000848
:100080008303000883030008830300088303000838
:100090008303000883030008830300088303000828
:1000A0008303000883030008830300088303000818
:1000B00083030008398F00088303000883030008C6
:1000C00083030008830300088303000883030008F8
:1000D00083030008D5940008830300088303000805
:1000E00083030008830300088303000883030008D8
:1000F00083030008830300088303000883030008C8
:1001000083030008830300088303000883030008B7
:1001100083030008830300088303000883030008A7
:100120008303000883030008830300088303000897
:100130008303000883030008830300088303000887
:100140008303000883030008830300088303000877
:100150008303000883030008830300088303000867
:100160008303000883030008830300088303000857
:1001700083030008830300088303000800000000D5
:100180008303000883030008830300088303000837
:100190008303000883030008830300088303000827
:1001A0008303000883030008830300088303000817
:1001B0008303000883030008830300088303000807
:1001C0008303000883030008000000008303000885
:1001D00083030008830300088303000883030008E7
:1001E00083030008830300088303000883030008D7
:1001F000830300088303000800F002F800F047F8CA
:100200000AA090E8000C82448344AAF10107DA4571
:1002100001D100F03CF8AFF2090EBAE80F0013F07C
:10022000010F18BFFB1A43F00103184770FD0000CF
:1002300090FD0000103A24BF78C878C1FAD8520760
:1002400024BF30C830C144BF04680C607047000050
:100250000023002400250026103A28BF78C1FBD8CF
:10026000520728BF30C148BF0B607047642900F0B7
:100270001B81782900F05481732900F0AE820020A0
:1002800070471FB50BF0B2FA1FBD10B510BD00F0DE
:1002900018FB1146FFF7F5FF09F01AFA00F036FBDC
:1002A00003B4FFF7F2FF03BC09F05FF92B4B1968A9
:1002B0000868B0E8F04F80F30988BFF36F8F4FF004
:1002C000000080F3118870470000000006480068B5
:1002D000006880F3088862B661B6BFF34F8FBFF342
:1002E0006F8F00DF00BF00BF08ED00E0DFF80C00FB
:1002F000016841F470010160704700BF88ED00E0C3
:10030000EFF30980BFF36F8F144B1A681EF0100FC4
:1003100008BF20ED108A20E9F04F106008B44FF0BC
:10032000500072B680F31188BFF34F8FBFF36F8F09
:1003300062B60AF0F9FA4FF0000080F3118808BCA9
:1003400019680868B0E8F04F1EF0100F08BFB0EC55
:10035000108A80F30988BFF36F8F70474000022036
:10036000EFF30580704700000948804709480047BF
:10037000FEE7FEE7FEE7FEE7FEE7FEE7FEE7FEE755
:10038000FEE7FEE704480549054A064B70470000B2
:10039000E18E0008F901000860680420606E042006
:1003A000606A0420606A0420704700000FB40449AA
:1003B00010B503AA029800F015FA10BC5DF814FB02
:1003C000200002200FB41CB5074B06AA7B446946E7
:1003D0000090059800F0D7F90020694600F0E6F992
:1003E0001CBC5DF814FB0000DD0300002DE9F041AA
:1003F0000E460446002020622046E168884730B35C
:10040000252805D0D4E901219047206A401CF2E755
:10041000E168204600278847050018D0A5F1410073
:10042000192802D820354FF4006732462946204665
:100430002760FFF71BFF40B1012804D0F61D26F00E
:1004400007060836D8E7361DD6E72846DAE7206AD9
:10045000BDE8F08170B50C460546012A05D0287824
:10046000800600D5EA69002302E0012305E05B1C59
:10047000934202D2E05C0028F9D1A869E618C01ABC
:10048000A861286A184428622846AFF3008004E077
:10049000D5E9012114F8010B9047B442F8D328465E
:1004A000AFF3008070BD00002DE9F0410646002446
:1004B00010687529314616A510D0AFF300800028CA
:1004C00002DA404213A507E031688A0701D512A578
:1004D00002E0490704D511A5012401E0AFF3008033
:1004E00000210A2206F1240709E0B0FBF2FCB0FB70
:1004F000F2F302FB1C00303078541846491C0028E7
:10050000F3D123462A463046BDE8F04100F0DCB87E
:10051000000000002D0000002B0000002000000063
:1005200070B504460D4621461068AFF3008021885F
:10053000090502D50F4A7A4402E00E4A7A440E3287
:10054000002104F1240305E000F00F060009965D88
:100550005E54491C0028F7D120780023000704D5F9
:10056000702D02D009B1022311322046BDE870403F
:1005700000F0AAB83AFA0000032A40F2308010F0E6
:10058000030C00F0158011F8013BBCF1020F62442E
:1005900098BF11F801CB00F8013B38BF11F8013BBF
:1005A000A2F1040298BF00F801CB38BF00F8013B6C
:1005B00011F0030300F02881083AC0F0088051F8D8
:1005C000043B083A51F804CBA0E80810F5E7121DE7
:1005D0005CBF51F8043B40F8043BAFF30080D20706
:1005E00024BF11F8013B11F801CB48BF11F8012BD2
:1005F00024BF00F8013B00F801CB48BF00F8012BF5
:10060000704702F0FF0343EA032242EA024200F08D
:1006100002B84FF000020429C0F0128010F0030C61
:1006200000F02681CCF1040CBCF1020F18BF00F8D9
:10063000012BA8BF20F8022BA1EB0C0100F018B988
:100640005FEAC17C24BF00F8012B00F8012B48BFF2
:1006500000F8012B704700004FF0013C50F8042BCC
:1006600051F8043B9A4215D1A2EB0C03934313EAD1
:10067000CC130BD150F8042B51F8043B9A4209D10A
:10068000A2EB0C03934313EACC13E7D04FF0000026
:10069000704700BFD01A01BAB1FA81F101F0180118
:1006A00022FA01F0CB40C1F12001DBB2C0B2C01A86
:1006B0002CFA01F3D11A914311EAC311E6D1704724
:1006C00070477047704770472DE9F0470D469946CF
:1006D0009246044600F124080168880604D5E069C2
:1006E00021F01001216000E00120A84201DD471B3C
:1006F00000E00027A1697A1902EB0900081AA0613D
:100700002078C00602D42046AFF30080002608E01F
:10071000D4E901211AF806009047206A401C761C93
:1007200020624E45F4DB2078C0060AD52046AFF3A0
:10073000008006E0D4E9012130209047206A401C67
:100740002062381EA7F10107F4DC07E0D4E901219B
:1007500018F805009047206A401C2062281EA5F169
:100760000105F3DC2046AFF300802078000602D5B7
:100770000220BDE8F0870120FBE7000001694A1C68
:1007800002610878704700B58FB0CDE901310021D2
:10079000059105497944CDE9031011466846FFF7F4
:1007A00025FE0FB000BD0000E5FFFFFF0A6802F85C
:1007B000010B0A60704710B5436913B1AFF30080B5
:1007C00001E0FFF747FE012010BD127800F124017F
:1007D0000A7000224A700122EDE711684FF0FF32E3
:1007E000E9E70000074B70B50D467B44FFF7CBFFF0
:1007F0000446284600F061F810B14FF0FF3070BD9C
:10080000204670BDCF8E000010B5203AC0F00B809E
:10081000B1E81850203AA0E81850B1E81850A0E804
:100820001850BFF4F5AF5FEA027C24BFB1E818505E
:10083000A0E8185044BF18C918C0BDE810405FEACE
:10084000827C24BF51F8043B40F8043B08BF70474A
:10085000D20728BF31F8023B48BF11F8012B28BF4F
:1008600020F8023B48BF00F8012B70474FF0000210
:1008700000B5134694469646203922BFA0E80C5096
:10088000A0E80C50B1F12001BFF4F7AF090728BF71
:10089000A0E80C5048BF0CC05DF804EB890028BFED
:1008A00040F8042B08BF704748BF20F8022B11F016
:1008B000804F18BF00F8012B7047007B00F08000CC
:1008C0007047754600F02CF8AE4605006946534661
:1008D00020F00700854618B020B5FFF753FDBDE8AE
:1008E00020404FF000064FF000074FF000084FF097
:1008F000000B21F00701AC46ACE8C009ACE8C00928
:10090000ACE8C009ACE8C0098D46704710B5044694
:10091000AFF300802046BDE81040FFF7C1BC0000E7
:100920000048704700680420FEE7000070B4BFF381
:100930004F8FBFF36F8F1A4900200860194D296847
:1009400041F400312960BFF34F8FBFF36F8F164919
:100950000860BFF34F8F081F006843F6FF76134A05
:10096000C0F34E3CC0F3C90406EA4C11204641EAEC
:1009700080731360401EFAD2BCF1010CF4D2BFF3B5
:100980004F8F286840F480302860BFF34F8FBFF34B
:100990006F8F0748016841F00401016070BC704727
:1009A00050EF00E014ED00E084ED00E060EF00E0C7
:1009B0009CEF00E070B5FF24054610A1FFF74CFE48
:1009C000002808BF012416D00EA12846FFF744FED8
:1009D000002808BF02240ED00CA12846FFF73CFED9
:1009E000002808BF032406D00AA12846FFF734FEDA
:1009F000002808BF0424204670BD00004C45443147
:100A00004F4E00004C4544314F464600424545504C
:100A10004F4E0000424545504F4646000A480022CE
:100A200010B5026042606B2309483121074AC0E9D2
:100A300000230022C0E90221026101F0CBFDBDE8E4
:100A40001040034801F0FEBD3800022000040040C1
:100A50006803022082B04E490026DFF838911F203B
:100A6000DFF834814FF6FF7A4FF0100B37460860FD
:100A7000D9F80C00002871D000235A1E19460AF03C
:100A80004FF801280646F3D198F800400020611C79
:100A900008F06AFF414A42A10546FFF793FC002097
:100AA000002C2F550AD9295CA1F161021A2A3CBFFA
:100AB00020392954401CC0B2A042F4D33949FF2444
:100AC0002846FFF7C9FD002808BF012416D0364983
:100AD0002846FFF7C1FD002808BF02240ED0334985
:100AE0002846FFF7B9FD002808BF032406D0304987
:100AF0002846FFF7B1FD002808BF0424FF2C33D09F
:100B00006E23CDF800A0D2225A210A2002F0E2FB87
:100B10001023C8225A210A20CDE900B507F04AFD6A
:100B200024A02946FFF742FC012C06D0022C0AD053
:100B3000032C0ED0042C12D019E0214800220121F0
:100B400000F0BFFA13E001221D48114600F0B9FA87
:100B50000DE00021084608F0CDF808E012E0012180
:100B6000002008F0C7F802E016A0FFF71FFC0B48B2
:100B7000C821A8F80070FFF74CFD0020294608F0B6
:100B8000BBFE75E7002E04BF0A2009F003FD6FE7E6
:100B900028000220000002201E000220D8000220AF
:100BA00025730000FC090008040A00080C0A00086C
:100BB000140A0008C3FCC1EECEAA3A25730D0A0040
:100BC00000040240CEDED0A7B5C4C3FCC1EEA3AC86
:100BD000C7EBD6D8D0C2CAE4C8EB21210D0A000069
:100BE00070470000B3F5804F30B418BF6FF070410C
:100BF00004D040F8221030BC0020704750F822305A
:100C0000DFF824C08D8903EA0C03D1E900C44CEA63
:100C1000041C8C688969240244EA05444CEA040CEB
:100C20004CEA01011943E4E70000F0CF70B4D1F8B9
:100C300000C050F82C201B4BD1E903561A40D1E9D3
:100C4000014335431C432C434D692C438D692C4390
:100C5000CD692C430D6A2C434D6A2C438D6A2C437D
:100C6000CD6A2C430D6B2C438D6B2C434D6B2C4369
:100C70002243082B08BF42F0400240F82C200A6BA8
:100C8000B2F5801F05D10A684AB1026842F48012A9
:100C900002600A681AB10268496B1143016070BCB6
:100CA000002070478004C0FF00EB820270B45368DC
:100CB0004FF07E46D1E900C48D8903F040434CEAF1
:100CC000041C8C68240244EA05440D8A4CEA04049E
:100CD000DFF834C00CEB05552C430D7D06EB0565A4
:100CE0002C438D692C4323435360026812F4801F08
:100CF00007D04268098A22F470020CEB01511143BB
:100D0000416070BC002070470000F0FF4DF8044DBA
:100D1000D1E901320C681343D1E903C24CEA020263
:100D20001A434B6913438A69012C046843EA020C95
:100D3000CB690A6A496A08D04CEA03031A43114393
:100D40006FF30E04214301600BE024F4F8441A43CE
:100D500021430A43416802606FF30E014CEA01012E
:100D600041605DF8044B00207047426942EA41014E
:100D7000416100207047F8B514460546D1E90002EC
:100D80006FF01F0310438A68C96803EB421242EAFE
:100D9000412108430090286100F098F90646A869AF
:100DA00010F0200F0ED0B4F1FF3F07D024B100F0B7
:100DB0008DF9801BA04201D90320F8BDA86910F06D
:100DC000200FF0D10020F8BD2DE9F001D1F804C0CA
:100DD0006FF00F050B682C015B1E05EB0C1C43EA42
:100DE0000C03D1F808C04FEA0428270304EB0C2CAD
:100DF00043EA0C050B8A2604CC68012A826808EBBA
:100E0000034C8B8A097E07EB035306EB01610DD07F
:100E1000361306EB04342C4344EA0C0C4CEA03036F
:100E2000194302F070421143816012E0240322F45E
:100E30007042A4F58054234322F470021A43C3681D
:100E400045EA0C0C826003F070434CEA010119433F
:100E5000C160BDE8F0010020704790F8351002290C
:100E600003D08021416501207047052180F83510AD
:100E70000068016821F00101016000207047000056
:100E80002DE9F84FDFF81C920022DFF814820F27BB
:100E900009F1040A4FF0010E0B680EFA02F52B401F
:100EA000AB4240F0F780D1F804C0BCF1020F18BF8C
:100EB000BCF1120F12D14FEAD20C00EB8C0CDCF813
:100EC00020605407E40E07FA04FB26EA0B06D1F86B
:100ED00010B00BFA04F43443CCF8204006684FEA13
:100EE000420C91F804B003240BF0030B04FA0CF449
:100EF000A6430BFA0CFB4BEA060606604E68012E71
:100F000018BF022E03D0112E18BF122E11D18668E1
:100F1000D1F80CB0A6430BFA0CFB4BEA0606866030
:100F2000466826EA05050E79C6F300169640354355
:100F30004560C56825EA04048D6805FA0CFC4CEA96
:100F4000040CC0F80CC0D1F804C01CF0805F7CD049
:100F5000D8F800C04CF4804CC8F800C0D8F800C0E5
:100F60000CF4804CCDF800C022F0030C0CF180454D
:100F700005F59835D5F808C89407240F07FA04F644
:100F80002CEA0606A0F1804CBCF5003C48D0A0F14C
:100F9000804CBCF5013C08BF4FF0010C40D0A0F1E3
:100FA000804CBCF5023C08BF4FF0020C38D0A0F1D9
:100FB000804CBCF5033C08BF4FF0030C30D0A0F1CF
:100FC000804CBCF5043C08BF4FF0040C28D0A0F1C5
:100FD000804CBCF5053C08BF4FF0050C20D0A0F1BB
:100FE000804CBCF5063C08BF4FF0060C18D0A0F1B1
:100FF000804CBCF5073C08BF4FF0070C10D0A0F1A7
:10100000804CBCF5083C08BF4FF0080C08D0A0F19C
:10101000804CBCF5093C0CBF4FF0090C4FF00A0C9A
:101020000CFA04FC4CEA060CC5F808C8D9F800C054
:101030004C682CEA030C14F4803F18BF4CEA030CF4
:10104000C9F800C0DAF800C000E023E04C682CEAE0
:10105000030C14F4003F18BF4CEA030CCAF800C09C
:10106000114CD4F800C04D682CEA030C15F4801F15
:1010700018BF4CEA030CC4F800C00C4CD4F800C0F4
:101080004D682CEA030C15F4001F18BF4CEA030C42
:10109000C4F800C0521C102AFFF4FEAEBDE8F88F61
:1010A00044380240003C0140083C01400C3C0140F7
:1010B0000069084018BF01207047426951404161F2
:1010C0007047002A08BF0904816170470148006821
:1010D000704700002400022002480168491C01609A
:1010E0007047000024000220074810B5016841F451
:1010F00000710160032000F009FA0F2000F006F8EB
:1011000000F0C4F9002010BD003C024010B50446B8
:1011100007484FF47A720068B0FBF2F001F042FA2F
:1011200000222146501E00F0BFF9002010BD000033
:10113000100002202DE9F05F044690F8A00001287D
:1011400004BF0220BDE8F09F0125022084F8A050D2
:1011500084F8A10002EB820000EBC20004EB8003E4
:10116000B1E8C11F3833A3E8C11F91E8C11120398C
:1011700083E8C111204607F09BFC2068456284F893
:10118000A150002084F8A000BDE8F09F002804BF13
:101190000120704770B5044690F8A100002520B9E1
:1011A000204684F8A05000F077F8022084F8A100CF
:1011B0002068816921F070418161D4E9010108430F
:1011C000D4E903121143014320688269114381610C
:1011D000206882682F490A408260A08A0204206841
:1011E0008368D4F818C043EA0C031A43826020686D
:1011F000C2680A40C260A08B02042068C368D4F8A9
:1012000020C043EA0C031A43C260206802690A4006
:101210000261A08C020420680369D4F828C043EA64
:101220000C031A4302612068426911404161A08D9C
:10123000010420684269236B1A431143416194F809
:101240003500020294F8360001042068C36A03F0F6
:101250007F43C3622068C36A114394F834C043EAF1
:101260000C031943C1622068416B41F004014163E2
:101270002068416B41F0020141632068816941F0BF
:1012800001018161C4F8A450012084F8A10000206C
:1012900070BD000000F800F0354810B586B0016858
:1012A00041F080610160006800F080600590314885
:1012B000016841F400010160016801F40001059139
:1012C000016841F002010160016801F0020105912D
:1012D000016841F020010160016801F020010591E1
:1012E000016841F040010160016801F04001059191
:1012F000016841F080010160016801F08001059101
:10130000016841F48071016000680324694600F4BB
:10131000807005902020009001200190CDE902040A
:101320001548FFF7ADFD4FF480600090022001905A
:1013300000206946CDE902040E2004900F48FFF713
:101340009FFD4FF40C6000900D486946FFF798FD33
:101350004FF47E4000900B486946FFF791FD40F244
:10136000F760009008486946FFF78AFD06B010BD97
:101370004438024030380240000402400014024069
:1013800000180240001C02400020024070B50446D4
:1013900090F8A0008C46012804BF022070BD0125F2
:1013A000022084F8A05084F8A10003EB830000EB36
:1013B000C30004EB800000F13801C0F838C0006EB3
:1013C0006044C1E90102C86A10441A46C860204658
:1013D00007F06EFB2068456284F8A150002084F875
:1013E000A00070BD70B5044690F8A0008C4601289E
:1013F00004BF022070BD0125022084F8A05084F8AB
:10140000A10003EB830000EBC300002604EB800087
:1014100000F138012046C1E9006CC1E90262C1E96E
:101420000AC21A4607F044FB2068456284F8A150BE
:10143000002084F8A06070BD134A41781160111D2E
:1014400003780A1D002B04BF002008601AD04368EF
:101450000B60017BC37A090741EA0361837A41EAA1
:10146000C341437B41EA8341837B41EA4341C37BE0
:1014700041EA0341437A41EA0321037A007841EAD1
:10148000430108431060704798ED00E07047012267
:1014900000F01F0102FA01F14009800000F1E02094
:1014A000C0F8001170470000174B4DF8044D1B6841
:1014B000C3F30223C3F1070CBCF1040F88BF4FF044
:1014C000040C1C1D072C34BF0023DB1E012404FA6E
:1014D0000CFCACF1010C0CEA0101994004FA03F395
:1014E0005B1E1A40114300284FEA0111B8BF00F0FB
:1014F0000F0000F1E020B4BF80F8141D80F8001444
:101500005DF8044B704700000CED00E0074A00F066
:10151000070011684FF6FF03194041EA002040F030
:10152000FD7040F080601060704700000CED00E03E
:101530001C4838B5016841F08051016000681A4CC0
:1015400000F080500090206840F480302060FFF769
:10155000BDFD0546606810F4803F09D1FFF7B6FD78
:10156000401BB0F57A7F14D8606810F4803FF5D046
:10157000206840F400302060FFF7A8FD0546606851
:1015800010F4003F0BD1FFF7A1FD401BB0F57A7FAF
:1015900001D9032038BD606810F4003FF3D000206B
:1015A00038BD000040380240007000402DE9F84F7F
:1015B00004460078DFF82C944FF0000B10F0010F78
:1015C0005D4610D0D9F8000020F40000C9F80000F2
:1015D000D9F80000616B0843C9F80000606B00286F
:1015E00008BF4FF0010B2068FF4E10F4002F0FD002
:1015F0003068E16B20F4401008433060E06BB0F5D8
:10160000801F08BF4FF0010B02D0002808BF012542
:10161000206810F4801F0FD03068216C20F4400047
:1016200008433060206CB0F5800F08BF4FF0010B0D
:1016300002D0002808BF0125206810F0807F18BF65
:101640004FF0010B10F0200F71D0E848016841F015
:10165000805101600068DFF8988300F080500090AE
:10166000D8F8000040F48070C8F80000FFF72EFDA5
:101670000746D8F8000010F4807F0AD1FFF726FD56
:10168000C01B642800F23083D8F8000010F4807F7B
:10169000F4D0DFF86083D8F8000010F4407031D047
:1016A000218E01F4407181422CD0D8F80000D8F886
:1016B000001020F4407041F48031C8F80010D8F8D0
:1016C000001021F48031C8F80010C8F80000D8F8E4
:1016D000000010F0010F15D0FFF7F8FC0746D8F80E
:1016E000000010F0020F08BF41F2883A0AD1FFF75C
:1016F000EDFCC01B504500F2F782D8F8000010F056
:10170000020FF4D0206B4FF4407181431CBFD9F815
:10171000000020F4F81000F0EE80C9F80000D8F8BE
:101720000000218EC1F30B010843C8F800002078A7
:1017300010F0100F07D0306820F0807030603068F3
:10174000A16B08433060208810F4804FAA4805D070
:101750000168626E21F4403111430160218811F467
:10176000004F05D00168A26E21F4402111430160B1
:10177000216811F4803F05D00168E26E21F4401128
:1017800011430160216811F4003F05D00168226F08
:1017900021F4400111430160217811F0400F05D080
:1017A0000168626C21F0030111430160217811F09E
:1017B000800F05D00168A26C21F00C01114301607B
:1017C000218811F4807F05D00168E26C21F030019E
:1017D00011430160218811F4007F05D00168226D5A
:1017E00021F0C00111430160218811F4806F05D000
:1017F0000168626D21F4407111430160218811F488
:10180000006F05D00168A26D21F4406111430160B1
:10181000218811F4805F05D00168E26D21F4405108
:1018200011430160218811F4005F05D00168226E28
:1018300021F4404111430160216811F4800F05D06B
:101840000168A26F21F0806111430160216811F4E9
:10185000001F0AD00168E26F21F0006111430160AE
:10186000E16FB1F1006F08BF0125216811F0080F89
:1018700018BF012511F4802F05D00168626F21F097
:10188000407111430160216811F4000F06D0016816
:10189000D4F8802021F0805111430160216811F0BB
:1018A000806F06D00168D4F8842021F000511143E4
:1018B0000160206810F0006F06D03068D4F88810FE
:1018C00020F0007008433060206810F0805F06D080
:1018D0003068D4F88C1020F0806008433060BBF191
:1018E000000F47F6C07A4FF440374FF070684FF062
:1018F000E0490ED109E0D9F8001020F4407020F042
:10190000704021F4F811084307E72068B0F1007F28
:1019100067D13A48006820F0806138480160FFF7DD
:10192000D5FB83463548006810F0006F0BD0FFF7F9
:10193000CDFBA0EB0B00642800F2D6812F48006895
:1019400010F0006FF3D1207810F0010F2C482DD04B
:10195000616B59BB016897FAA7F201F44031B2FA02
:1019600082F2D140026898FAA8F39AFAAAFC02F02F
:101970007062B3FA83F3BCFA8CFCDA40636803FA52
:101980000CF397FAA7FCBCFA8CFC01FA0CF1194392
:1019900098FAA8F3B3FA83F39A4099FAA9F30A43A1
:1019A000A168B3FA83F3994011430160216811F4EF
:1019B000002F03D0E26BB2F5801F06D011F4801F18
:1019C00049D0216CB1F5800F45D1016897FAA7F293
:1019D00001F44031B2FA82F2D140026802F0E042F2
:1019E00010E0A5E0083802408C3802404038024040
:1019F00000700040703802409038024000380240C9
:101A00008438024099FAA9F39AFAAAFCB3FA83F34C
:101A1000BCFA8CFCDA40636803FA0CF397FAA7FC73
:101A2000BCFA8CFC01FA0CF198FAA8FC1943E368A3
:101A3000BCFA8CFC03FA0CF3194399FAA9F3B3FA34
:101A400083F39A40114301603168626A21F01F01FB
:101A5000521E11433160216811F0807F2ED0016841
:101A600098FAA8F201F07061B2FA82F2D1400268ED
:101A700099FAA9F39AFAAAFC02F0E042B3FA83F3C6
:101A8000BCFA8CFCDA40636897FAA7FBBBFA8BFBC5
:101A900003FA0CF3D4F810C00CFA0BFC43EA0C0365
:101AA00098FAA8FCBCFA8CFC01FA0CF1194399FADB
:101AB000A9F3B3FA83F39A4011430160216811F04E
:101AC000007F1CD09AFAAAF2616897FAA7F3B2FADB
:101AD00082F2B3FA83F301FA02F22169994098FA8B
:101AE000A8F31143E268B3FA83F39A4099FAA9F391
:101AF0001143A268B3FA83F39A40114301607F480F
:101B0000006840F080617D480160FFF7DFFA83469E
:101B10007A48006810F0006F0AD1FFF7D7FAA0EBFF
:101B20000B0064287DD87548006810F0006FF4D071
:101B3000002D77D0714D286820F080502860FFF785
:101B4000C5FA8346286810F0005F09D0FFF7BEFA97
:101B5000A0EB0B00642864D8286810F0005FF5D172
:101B60002068DFF89CC110F4002F01D0E16B21B197
:101B700010F4801F38D0206CB0BBDCF8000097FA5E
:101B8000A7F100F44030B1FA81F1C840DCF8001050
:101B900099FAA9F29AFAAAF301F0E041B2FA82F2B4
:101BA000B3FA83F3D14062699A4097FAA7F3B3FA84
:101BB00083F3984098FAA8F31043A269B3FA83F329
:101BC0009A40104399FAA9F2B2FA82F2914008437E
:101BD000CCF8000030686FF0FF02A16A20F4F850E2
:101BE00002EB012108433060206810F4001F34D05C
:101BF000E06FB0F1006F30D1DCF8000098FAA8F186
:101C000000F07060B1FA81F1C840DCF8001099FA78
:101C1000A9F29AFAAAF301F0E041B2FA82F2D140B5
:101C200001E061E067E06269B3FA83F397FAA7FB2A
:101C30009A40236ABBFA8BFB03FA0BF31A4398FA18
:101C4000A8F3B3FA83F39840104399FAA9F2B2FAD1
:101C500082F291400843CCF80000207810F0080F81
:101C600032D0DCF8000098FAA8F100F07060B1FA08
:101C700081F1C840DCF8001097FAA7F29AFAAAF3AB
:101C800001F44031B2FA82F2B3FA83F3D1406269CF
:101C90009A4097FAA7F3B3FA83F39940114398FA5D
:101CA000A8F2B2FA82F2904099FAA9F20843E169E7
:101CB000B2FA82F291400843CCF800003068E16A41
:101CC00020F4403008433060286840F0805028609D
:101CD000FFF7FCF90446286810F0005F0BD1FFF70E
:101CE000F5F9001B642802D90320BDE8F88F2868A5
:101CF00010F0005FF3D00020BDE8F88F00380240FC
:101D0000883802402DE9F047DFF8688104460D4627
:101D1000D8F8000000F00F00A8420CD2D8F800005C
:101D200020F00F002843C8F80000D8F8000000F0A9
:101D30000F00A84270D120784F4F10F0020F05D04D
:101D40003868A16820F0F00008433860207810F06F
:101D5000010F4ED060684949012820D00968022847
:101D600022D011F0020F57D0396821F00301084347
:101D70003860FFF7ABF90646606841F28839012800
:101D800016D00228386800F00C0021D0F8B1FFF717
:101D90009DF9801B484528D90320BDE8F0870968D4
:101DA00011F4003FE0D137E011F0007FDCD133E0E7
:101DB000386800F00C0004281BD0FFF787F9801B5F
:101DC0004845E9D8386800F00C000428F5D110E047
:101DD00008280ED0FFF77AF9801B4845DCD8386810
:101DE00000F00C000828F5D103E0386810F00C0F63
:101DF000CDD1D8F8000000F00F00A8420FD9D8F8D4
:101E0000000020F00F002843C8F80000D8F80000B8
:101E100000F00F00A84202D00120BDE8F087207832
:101E200010F0040F05D03868E16820F4E050084352
:101E30003860207810F0080F06D03868216920F447
:101E4000604040EAC100386000F04EF83968F02286
:101E500092FAA2F201F0F001B2FA82F2D140084AFD
:101E6000515CC840074908600F20FFF74FF9002078
:101E7000BDE8F087003C02400838024000380240CC
:101E8000F6B70008100002200848094900680968F0
:101E90004FF4E05292FAA2F201F4E051B2FA82F267
:101EA000D140044A515CC840704700001000022035
:101EB0000838024006B8000808480949006809685F
:101EC0004FF4604292FAA2F201F46041B2FA82F257
:101ED000D140044A515CC840704700001000022005
:101EE0000838024006B800082148006810F00C01CC
:101EF000204808BF7047DFF880C0042904BF60464F
:101F00007047082918BF70474DF8044D1B4A1168E7
:101F1000136801F03F0113F4800F47F6C0730BD034
:101F2000BCFBF1F01168194093FAA3F3B3FA83F301
:101F3000D94000FB01F00AE0B0FBF1F01168194054
:101F400093FAA3F3B3FA83F3D94000FB01F01168CD
:101F50004FF440325DF8044B92FAA2F201F44031A2
:101F6000B2FA82F2D140491C4900B0FBF1F070474F
:101F7000083802400024F40040787D010438024013
:101F80002DE9F84FDFF8A88304460078A8F104078C
:101F900010F0010FA7F104055AD0D8F8000000F0A6
:101FA0000C00042809D0D8F8000000F00C00082824
:101FB0000CD1386810F4800F08D0286810F4003F66
:101FC00046D06068002800F0AF8141E06068B0F55D
:101FD000803F04BF286840F480300AD010B1B0F5CB
:101FE000A02F11D0286820F480302860286820F4C1
:101FF000802028606068D0B1FFF768F8064628683E
:1020000010F4003F08D023E0286840F480202860C6
:10201000286840F48030ECE7FFF758F8801B64280C
:1020200000F22581286810F4003FF5D010E0FFF79A
:102030004DF80646286810F4003F09D0FFF746F82F
:10204000801B642800F21381286810F4003FF5D14A
:10205000207810F0020F50D0D8F800004FF0F809A7
:1020600010F00C0F18D0D8F8000000F00C00082871
:1020700004BF386810F4800F0ED0E068002828688C
:1020800028D040F001002860FFF720F806462868B5
:1020900010F0020F09D011E0286810F0020F1CBFE9
:1020A000E06801280AD000F03FB9FFF70FF8801B65
:1020B00002287DD8286810F0020FF6D0286899FA17
:1020C000A9F22169B2FA82F220F0F80091400843A7
:1020D000286012E020F001002860FEF7F7FF0646B6
:1020E000286810F0020F08D0FEF7F0FF801B0228CE
:1020F0005ED8286810F0020FF6D1207810F0080F93
:1021000033D0DFF8309260690028D9F8000016D08B
:1021100040F00100C9F80000FEF7D8FF0646D9F8E4
:10212000000010F0020F20D1FEF7D0FF801B022824
:102130003ED8D9F8000010F0020FF5D015E020F0DD
:102140000100C9F80000FEF7C1FF0646D9F80000FB
:1021500010F0020F09D0FEF7B9FF801B022827D824
:10216000D9F8000010F0020FF5D1207810F0040F1C
:1021700063D07148016841F08051016000686F4E82
:1021800000F080500090306840F480703060FEF7BE
:102190009DFF8146306810F4807F0BD1FEF796FFDB
:1021A000A0EB0900642862D8306810F4807F00E05A
:1021B0005DE0F3D0A068624E012804BF306840F0B3
:1021C000010009D008B1052813D0306820F00100C3
:1021D0003060306820F004003060A06841F2883A36
:1021E000D0B1FEF773FF8146306810F0020F08D0BF
:1021F00023E0306840F004003060306840F00100B7
:10220000EAE7FEF763FFA0EB090050452FD83068DE
:1022100010F0020FF5D010E0FEF758FF814630684D
:1022200010F0020F09D0FEF751FFA0EB0900504556
:102230001DD8306810F0020FF5D1A069E8B3D8F8C6
:10224000001001F00C0108296ED00228286820F047
:10225000807028600ED0FEF739FF0446286810F021
:10226000007F5ED0FEF732FF001B022855D9032005
:10227000BDE8F88FFEF72AFF0646286810F0007FB9
:1022800008D0FEF723FF801B0228F0D8286810F042
:10229000007FF6D1D4E9070147F6C0724FF0FF3353
:1022A00092FAA2F20843616AB2FA82F29140A26AFB
:1022B00003EB52024FF4403300E032E093FAA3F311
:1022C000B3FA83F39A4011434FF070620843E16A16
:1022D00092FAA2F2B2FA82F291404FF0E042084341
:1022E000216B92FAA2F2B2FA82F29140084338606E
:1022F000286840F080702860FEF7E8FE04462868F1
:1023000010F0007F0DD1FEF7E1FE001B0228AED8D1
:10231000286810F0007FF6D003E0286810F0007FF6
:10232000A0D10020BDE8F88F0120BDE8F88F0000A3
:1023300008380240743802404038024000700040C3
:1023400070380240002804BF0120704770B5044671
:1023500090F82C000D4628B9002084F82D00204666
:1023600000F012F8022084F82C002068211DFEF7EE
:10237000CDFCD4E900022946FEF726FD012084F8B1
:102380002C00002070BD000030484DF804ED87B0EF
:10239000016841F001010160006800F00100059052
:1023A0002B48016841F004010160016801F004015B
:1023B0000591016841F008010160016801F0080120
:1023C0000591016841F010010160016801F0100100
:1023D0000591016841F020010160016801F02001D0
:1023E0000591016841F0400101600068694600F014
:1023F000400005900D2000900220019001200290E5
:10240000032003900C2004901248FEF739FD4CF293
:102410000370009010486946FEF732FD4FF6837056
:1024200000900E486946FEF72BFD4FF63F000090E6
:102430000B486946FEF724FD48F237100090094822
:102440006946FEF71DFD07B05DF804FB3838024011
:102450003038024000080240000C024000100240E8
:10246000001402400018024010B5044690F82C00F9
:10247000022808BF10BD022084F82C002068FEF757
:1024800074FC012084F82C00002010BD70B50446B7
:1024900090F82C000D46022808BF70BD022084F879
:1024A0002C002068FEF767FC286802280CBF052076
:1024B000012084F82C00002070BD002804BF0120FA
:1024C000704770B5044690F8450015460E4628B989
:1024D000002084F84400204600F01AF8206804F137
:1024E0000801FEF7A3FBA26831462068FEF7DCFB7B
:1024F000E36A2946D4E90102FEF774FBA16820686B
:1025000050F8212042F0010240F82120002070BD47
:102510001A484DF804ED87B0016841F001010160EF
:10252000006800F0010005901548016841F00801BD
:102530000160016801F008010591016841F0100196
:1025400001600068694600F0100005904EF2B3701B
:1025500000900220019001200290032003900C20A3
:1025600004900848FEF78CFC4FF6807000900648F7
:102570006946FEF785FC07B05DF804FB3838024079
:1025800030380240000C0240001002404FF0E021C1
:10259000042808690CBF40F0040020F00400086122
:1025A00070470000401EB0F1807F24BF01207047BB
:1025B0004FF0E0214861F020044A82F8140D002019
:1025C0008861072008610020704700000FE000E0EC
:1025D00070477047002804BF0120704710B50446BB
:1025E00090F83900002804BF204600F00DF80220C2
:1025F00084F839002068211D06F0A4FC012084F82D
:102600003900002010BD000008B50068A0F180412D
:10261000B1F5806118BF08BD0948016841F00201A9
:10262000016000680022012100F0020000901D20DE
:10263000FEF73AFFBDE808401D20FEF728BF000066
:10264000403802400168CA6842F00102CA6000686E
:10265000016841F00101016000207047704770B5CA
:102660000446006801694FF0000511F0020F1CBF1D
:10267000C16811F0020F13D06FF002010161012057
:1026800020762068806910F0030F204602D0FFF703
:10269000E5FF04E000F0A6F8204600F0A4F8257657
:1026A0002068016911F0040F1CBFC16811F0040F0C
:1026B00013D06FF004010161022020762068806948
:1026C00010F4407F204602D0FFF7C8FF04E000F07E
:1026D00089F8204600F087F825762068016911F016
:1026E000080F1CBFC16811F0080F13D06FF008016C
:1026F0000161042020762068C06910F0030F204695
:1027000002D0FFF7ABFF04E000F06CF8204600F0C9
:102710006AF825762068016911F0100F1CBFC168A6
:1027200011F0100F13D06FF0100101610820207616
:102730002068C06910F4407F204602D0FFF78EFF6A
:1027400004E000F04FF8204600F04DF825762068B0
:10275000016911F0010F1CBFC16811F0010F05D014
:102760006FF001010161204600F03EF82068016928
:102770006FF0800511F0800F1CBFC16811F0800F51
:1027800003D005612046FFF723FF2068016911F49B
:10279000807F1CBFC16811F0800F03D00561204607
:1027A000FFF716FF2068016911F0400F1CBFC168D8
:1027B00011F0400F05D06FF040010161204600F09C
:1027C00025F82068016911F0200F1ABFC16811F0C7
:1027D000200F70BD6FF0200101612046BDE8704000
:1027E000FFF7F7BE704770470649884218BF704729
:1027F0000548016843684A1C026043F100014160DA
:1028000070470000680302203800022070477047BC
:1028100090F8691090F86A000843704770B5016835
:102820000446C8690A688B6810F00F0F4FF0200546
:1028300051D040F2011C13EA0C0F7DD010F0010FB3
:1028400018BF12F4807F07D04FF0010CC1F820C0F0
:10285000E16E41F00101E16610F0020F18BF13F0C4
:10286000010F08D0D4F800C00221CCF82010E16E8E
:1028700041F00401E16610F0040F18BF13F0010FDE
:1028800008D0D4F800C00421CCF82010E16E41F04B
:102890000201E16610F0080F0CD002F0200103F0F5
:1028A0000103194306D0236808211962E16E41F043
:1028B0000801E166E16E002908BF70BD10F0200F2D
:1028C0001EBF12F0200F204606F045FCE06E10F00F
:1028D000080F10D10AE010F0200F18BF12F0200FDF
:1028E00039D02046BDE8704006F035BC20688068CD
:1028F00010F0400F29D02068016821F49071016028
:102900002068816821F00101816084F86A502068A4
:10291000816811F0400F14D0816821F0400181607E
:10292000606E70B12D490165606EFEF796FA002861
:1029300008BF70BD606E00E00DE0016DBDE8704045
:1029400008472046FFF763FF70BD2046FFF75FFF93
:102950000020E06670BD10F0800F18BF12F0800FED
:102960002CD094F86900212818BF70BDB4F852002B
:1029700090B1A068B0F5805F04BF20690028E06CCA
:1029800014D0411CE164216800788862B4F85200D8
:10299000401EA4F8520070BD086820F08000086056
:1029A0002068016841F04001016070BD0088C0F3FB
:1029B00008008862E06C801CE064E7E710F0400FDC
:1029C00014BF12F0400F70BD20460A6822F040028A
:1029D0000A6084F8695000F00BF970BD439100085B
:1029E000002804BF0120704710B5044690F8690024
:1029F00028B9002084F86800204600F029F8242037
:102A000084F869002068016821F001010160204616
:102A100006F0E0FB012808BF10BD606A00281CBF5B
:102A2000204606F0F1FA2068416821F490414160A7
:102A30002068816821F02A0181602068016841F0E6
:102A4000010101602046BDE8104006F04ABB0000CD
:102A500010B5006886B0A0F18041B1F588311CBF87
:102A600006B010BD1848016841F00101016000681E
:102A700000F0010005901548016841F01001016067
:102A800000680121124C00F0100005904FF4007016
:102A900000900220CDE901010390072069460490CF
:102AA0002046FEF7EDF92115204600916946FEF714
:102AB000E7F92520FEF7EBFC002207212520FEF791
:102AC000F3FC06B010BD000030380240443802402C
:102AD0000000024090F86A30202B49D1002912BF33
:102AE000002A0120704790F86830012B40D0012364
:102AF00080F868304165A0F85820A0F85A20FF22DD
:102B00008168B1F5805F05D07F2351B1B1F1805F5D
:102B10000CD012E00169002908BF40F2FF1102D178
:102B200009E0016909BBA0F85C2006E00169002901
:102B300018BF3F2119D0A0F85C100021C1662222E5
:102B400080F86A2080F8681001680A6842F4807290
:102B50000A6001688A6842F001028A6000680168C0
:102B600041F02001016000207047A0F85C30E4E7EC
:102B7000022070474DF8044D0068A0F18041B1F586
:102B800088311CBF5DF8044B7047174A508810F419
:102B9000004F1CBF5DF8044B704710F4804F4FF09E
:102BA00000031149097808D00A2908BF40F4004001
:102BB00016D053805DF8044B70470D2908BF40F4D0
:102BC00080400DD0094CC0F30D0C401C80B2C728CA
:102BD00004F80C1050809CBF5DF8044B7047E8E788
:102BE00050805DF8044B70471C000220D800022082
:102BF0007047FEE7114810B586B0016841F08001CA
:102C00000160006869460E4C00F08000059030209D
:102C10000090012001900290022003902046FEF7D0
:102C20002FF9012220462021FEF74BFA01222046EF
:102C30001021FEF746FA06B010BD00003038024001
:102C4000001C02402DE9F041374E07460024306851
:102C500020F4406030603068306025460022304605
:102C60001021FEF72EFA022006F0CAFC012230469F
:102C70001021FEF726FA60062021040E3046FEF7EA
:102C800017FA00281CBF601CC4B2012006F0B8FC73
:102C9000681CC5B2082DE1D34FF000024FF01001BF
:102CA00030460FB3FEF70DFA306820F44060306014
:102CB000306840F480603060002230462021FEF70A
:102CC00000FA022006F09CFC012230461021FEF79B
:102CD000F8F9022006F094FC002230461021FEF79D
:102CE000F0F92046BDE8F081FEF7EBF9306820F4FA
:102CF00040603060306840F48060306001223046CF
:102D00002021FEF7DEF9022006F07AFC012230468F
:102D10001021FEF7D6F9022006F072FC00223046A0
:102D20001021FEF7CEF9DCE7001C024070B51C4E06
:102D300005463046316821F440613160316841F424
:102D40008061316000221021FEF7BBF9002415F0EC
:102D5000800F05D0012230462021FEF7B2F904E0B1
:102D6000002230462021FEF7ACF96806050E02204D
:102D700006F046FC012230461021FEF7A2F902209F
:102D800006F03EFC002230461021FEF79AF90220A0
:102D900006F036FC601CC4B2082CD8D370BD00000D
:102DA000001C024010B5124C206820F440602060E6
:102DB000206840F480602060012220462021FEF738
:102DC00080F9012220461021FEF77BF9042006F04D
:102DD00017FC002220462021FEF773F9042006F09C
:102DE0000FFC00222046BDE810401021FEF769B913
:102DF000001C024010B5124C206820F44060206096
:102E0000206840F480602060002220461021FEF7F8
:102E100058F9002220462021FEF753F9042006F03D
:102E2000EFFB012220461021FEF74BF9012220463C
:102E30002021FEF746F9BDE81040042006F0E0BB73
:102E4000001C024070B5294D0024286820F4406021
:102E5000286028682860012220212846FEF731F9E1
:102E6000012006F0CDFB012228461021FEF729F9AA
:102E7000012006F0C5FB20212846FEF719F900289D
:102E80002DD0601CC4B2FA2C23D9286820F44060ED
:102E90002860286840F480602860002228461021BD
:102EA000FEF70FF9002228462021FEF70AF9042038
:102EB00006F0A6FB012228461021FEF702F90122A6
:102EC00028462021FEF7FDF8042006F099FB01209A
:102ED00070BD20212846FEF7EBF80028D1D1002252
:102EE00028461021FEF7EDF8002070BD001C0240BE
:102EF0001B4870B586B0016841F0010101600168AE
:102F000001F001010591016841F0040101600168CF
:102F100001F004010591016841F080010160006841
:102F200003250026694600F0800005900220012458
:102F3000CDE902050B48CDE90046FDF7A1FF60038E
:102F40006946CDE900060848CDE90245FDF798FF3E
:102F50000C20009005486946FDF792FF06B070BD51
:102F6000303802400000024000080240001C0240CD
:102F70002DE9F05F3D4C3E4DA071296839B105F057
:102F800081FBE88A2080288B6080BDE8F09F37496C
:102F90002C232B254FF0F0094FF4305E49F2413AD3
:102FA0004FF448764FF02A0C89884FF4A0784FF4FC
:102FB000F07245F2105B45F2103760B1A4F8008062
:102FC0005145A4F8029018BFB9422ED12381A4F82C
:102FD0000AC0A58140E0A4F800905145A4F8028001
:102FE00018BFB94209D12381B942A4F80AC0A5810A
:102FF00004BFA4F80080628033E059450AD1A4F8E8
:1030000008E04FF4285060814FF42C50A0812280BA
:10301000668026E0A1F5C850633822D123816581FE
:10302000A4F80CC0228066801BE059450AD1A4F8A0
:1030300008E04FF4285060814FF42C50A081268086
:10304000628009E0A1F5C850633805D12381A4F856
:103050000AC0A58126806280B94204BF2280A4F8FC
:1030600002800020BDE8F05F04F02ABF5C0202206D
:10307000140302202DE9F84F934B1B681BB1BDE8E8
:10308000F84F05F013BBDFF844A20C0ADFF84092BA
:10309000CBB2D446070ABAF8045009F10206BCF8CC
:1030A0000C1000F0FF08BCF80AC0A5F5134BBBF1EB
:1030B000410B1CBFA5F5A04BBBF5447B09D0A5F582
:1030C000A04BBBF5A26B3DD0A5F5C857633F7CD0A4
:1030D000F2E0ADF800C0BDF80000ADF80000BDF8AA
:1030E0000000A9F80000ADF80070BDF80000ADF8D0
:1030F0000000BDF800003080ADF80080BDF8000091
:10310000ADF80000BDF800003080ADF80010BDF84B
:103110000000ADF80000BDF80000A9F80000ADF80F
:103120000040BDF80000ADF80000BDF800003080A0
:10313000ADF80030BDF80000ADF80000BDF80000AB
:103140003080B9E0ADF800C0BDF80000ADF8000077
:10315000BDF80000A9F80000ADF80070BDF800004F
:10316000ADF80000BDF8000030800CF10100ADF8B2
:103170000000BDF80000ADF80000BDF80000A9F89F
:103180000000ADF80080BDF80000ADF80000BDF80B
:1031900000003080ADF80010BDF80000ADF8000070
:1031A000BDF80000A9F80000ADF80040BDF800002F
:1031B000ADF80000BDF800003080481CADF80000FC
:1031C000BDF80000ADF8000000E00DE0BDF8000023
:1031D000A9F80000ADF80030BDF80000ADF800001F
:1031E000BDF80000308067E09AF8065025B9BAF8BB
:1031F0000050281A401E80B2ADF800C0BDF800C0D3
:10320000ADF800C0BDF800C0A9F800C04FEA102C0E
:10321000ADF800C0BDF80050ADF80050BDF800504A
:103220003580C0B2ADF80000BDF80050ADF80050D8
:10323000BDF800503580ADF800C0BDF800C0ADF855
:1032400000C0BDF800C0A6F800C0ADF80000BDF891
:103250000000ADF80000BDF800003080ADF80010AF
:10326000BDF80000ADF80000BDF80000A9F80000AE
:10327000ADF80040BDF80000ADF80000BDF800005A
:103280003080ADF80030BDF80000ADF80000BDF8AA
:1032900000003080ADF80040BDF80000ADF800003F
:1032A000BDF800003080ADF80030BDF80000ADF88A
:1032B0000000BDF800003080BAF80800A9F800004E
:1032C0003280BDE8F88F0000140302205C02022067
:1032D000FEFF07602DE9F84F1F46194B83460C4649
:1032E0000A981B6833B13B460090584605F000FA37
:1032F000BDE8F88FA2EB0B01491C8DB2BC4288BF20
:10330000BDE8F88FDFF83C9086B2DFF83CA00AF108
:1033100002082146584604F061FFB9F80800AAF8EF
:1033200000000020002D05D9A8F80060401C80B2E4
:103330008542F9D8601C84B2BC42EAD9BDE8F88F56
:10334000140302205C020220FEFF07602DE9F04F0B
:1033500095B005F04FFBDFF80CB445F21059ABF80F
:10336000040018B105F020FA04F0B1BCFE48016871
:1033700041F002010160006801264FF0200ACDF8FB
:1033800038A000F0020013904FF00308CDF84480FD
:10339000F6480EA9CDE90F66FDF772FD04F0FAFCC0
:1033A000F34800274FF0204107AA0160F149C0E926
:1033B00001171021C760C0E9047109028761C76164
:1033C000C0E908718900C0E90A7189010763C0E991
:1033D0000D7111206946CDE9000755200290152096
:1033E000CDE90870CDE90670E1480D97FFF765F863
:1033F000322006F0D7F8D320ADF84C00BDF84C00D1
:10340000ADF84C00BDF84C00DB4D2880AC1C20888A
:10341000ADF84C00BDF84C002088ADF84C00BDF86C
:103420004C002088ADF84C00BDF84C004FF6FF7101
:1034300001EA00202188ADF84C10BDF84C1008437B
:10344000C8498880A0F5134141397CD0D420ADF81B
:103450004C00BDF84C00ADF84C00BDF84C00288085
:103460002088ADF84C00BDF84C002088ADF84C0029
:10347000BDF84C002088ADF84C00BDF84C004FF66C
:10348000FF71228801EA0020ADF84C20BDF84C20E5
:103490001043ABF80400A0F5A642103A63D04FF4F5
:1034A0005A40ADF84C00BDF84C00ADF84C00BDF8EA
:1034B0004C0028802088ADF84C00BDF84C004FF43B
:1034C0005B40ADF84C00BDF84C00ADF84C00BDF8C9
:1034D0004C0028802088ADF84C00BDF84C004FF41B
:1034E0005C42ADF84C2001EA0020BDF84C20ADF85C
:1034F0004C20BDF84C202A802288ADF84C20BDF825
:103500004C201043ABF80400B0F5004F0CBFABF8F3
:103510000490484527D0A120ADF84C00BDF84C00E0
:10352000ADF84C00BDF84C0028802088ADF84C0068
:10353000BDF84C002088ADF84C00BDF84C0001EA05
:103540000020218800E00EE0ADF84C10BDF84C10D2
:103550000843ABF80400A0F5AE41613904BF41F661
:103560006310ABF80400BBF8041084A0FCF71EFF46
:103570007C484FF0B10C8288ED20A2F5134141390F
:1035800000F03C86E221A2F5A643103B01F0B18198
:103590004A4544F0798155204FF4704129802080BC
:1035A000491CAA2029802080481C52212880218083
:1035B000401C082128802180411C01202980208076
:1035C0000D204FF4304129802080481C0D21288097
:1035D0002180401C2880218034204FF436412980EE
:1035E0002080491C29802080491C298020800D20B2
:1035F0004FF4314129802080491C29802080481CBB
:103600000D212880218034214FF4374028802180EB
:10361000411C342029802080491C298020800020E2
:103620004FF4324129802080481C002128802180CD
:10363000411C00202980208024204FF4384129801B
:103640002080481C242128802180411C242029809E
:10365000208001204FF43F41298020800F214FF42A
:10366000334028802180401C28802180411C0F206D
:103670002980208034204FF4394129802080481C43
:10368000342128802180401C2880218008214FF48B
:10369000354028802180411C082029802080481C3A
:1036A00008212880218003214FF442402880218076
:1036B00024204FF43A4129802080491C2980208011
:1036C000491C2980208000204FF43C412980208023
:1036D000481C782128802180411C002029802080DE
:1036E0004FF43D4129802080491C7820298020808A
:1036F000481C00212880218000204FF43E41298071
:103700002080481C64212880218000204FF45141F2
:1037100029802080491C332029802080481C0021DA
:1037200028802180411C342029802080491C0020D1
:1037300029802080481C3A2128802180411C0020BB
:1037400029802080491C4A2029802080491C002093
:1037500029802080491C5C2029802080491C002071
:10376000298013E05C02022030380240000402404D
:1037700010020220040100A0FEFF0760204C434419
:103780002049443A25780D0A000000002080491C99
:10379000812029802080481C002128802180411C14
:1037A000A62029802080481C002128802180401CE0
:1037B000E52128802180411C012029802080491C8E
:1037C000132029802080491C012029802080491C49
:1037D000542029802080491C012029802080481CF9
:1037E000822128802180411C012029802080491CC1
:1037F000CA2029802080481C022128802180411C69
:10380000002029802080491C022029802080491C1A
:10381000012029802080481C022128802180411C11
:10382000342029802080491C022029802080491CC6
:10383000672029802080481C022128802180411C8B
:10384000842029802080481C022128802180411C5E
:10385000A42029802080481C022128802180411C2E
:10386000B72029802080491C022029802080491C03
:10387000CF2029802080481C022128802180411CE3
:10388000DE2029802080491C022029802080491CBC
:10389000F22029802080491C022029802080491C98
:1038A000FE2029802080481C032128802180401C84
:1038B000102128802180411C032029802080491C60
:1038C000332029802080481C032128802180411C2E
:1038D0006D202980208000204FF4524129802080D3
:1038E000491C332029802080491C00202980208009
:1038F000491C342029802080481C002128802180F8
:10390000411C3A2029802080491C002029802080E9
:10391000491C4A2029802080491C002029802080C1
:10392000491C5C2029802080491C0020298020809F
:10393000491C812029802080481C0021288021806A
:10394000411CA62029802080491C0020298020803D
:10395000491CE52029802080481C012128802180E5
:10396000401C132128802180411C012029802080B7
:10397000491C542029802080491C01202980208056
:10398000491C822029802080491C01202980208018
:10399000491CCA2029802080491C022029802080BF
:1039A000491C002029802080491C02202980208079
:1039B000491C012029802080491C02202980208068
:1039C000491C342029802080491C02202980208025
:1039D000491C672029802080491C022029802080E2
:1039E000491C842029802080491C022029802080B5
:1039F000481CA42128802180411C0220298020808D
:103A0000491CB72029802080491C02202980208061
:103A1000491CCF2029802080491C02202980208039
:103A2000491CDE2029802080491C0220298020801A
:103A3000491CF22029802080491C022029802080F6
:103A4000491CFE2029802080491C032029802080D9
:103A5000491C102029802080491C032029802080B7
:103A6000491C332029802080491C03202980208084
:103A7000491C6D202980208000204FF4534129806B
:103A80002080481C332128802180401C0021288070
:103A90002180411C342029802080481C002128805E
:103AA0002180401C3A2128802180411C002029804F
:103AB0002080491C4A2029802080491C0020298020
:103AC0002080481C5C2128802180411C0020298006
:103AD0002080481C812128802180411C00202980D1
:103AE0002080491CA62029802080481C0021288095
:103AF0002180401CE52128802180411C0120298053
:103B00002080491C132029802080491C0120298005
:103B10002080481C542128802180401C01212880BD
:103B20002180401C822128802180411C0120298085
:103B30002080481CCA2128802180411C0220298025
:103B40002080481C002128802180411C02202980DF
:103B50002080491C012029802080491C02202980C6
:103B60002080481C342128802180401C022128808C
:103B70002180411C672029802080481C0221288048
:103B80002180411C842029802080481C022128801B
:103B90002180401CA42128802180411C02202980F2
:103BA0002080491CB72029802080481C02212880C1
:103BB0002180401CCF2128802180401C02212880A8
:103BC0002180411CDE2029802080481C0221288081
:103BD0002180401CF22128802180401C0221288065
:103BE0002180411CFE2029802080491C032029803F
:103BF0002080481C102128802180401C032128801F
:103C00002180411C332029802080481C03212880EA
:103C10002180411C6D202980208000204FF45441D8
:103C200029802080491C332029802080481C0021C5
:103C300028802180401C342128802180401C0021C4
:103C400028802180411C3A2029802080491C0020A6
:103C500029802080491C4A2029802080491C00207E
:103C600029802080481C5C2128802180411C002064
:103C700029802080491C812029802080491C002027
:103C800029802080481CA62128802180411C0020FA
:103C900029802080491CE52029802080491C0120A2
:103CA00029802080491C132029802080491C012064
:103CB00029802080491C542029802080491C012013
:103CC00029802080491C822029802080481C0121D5
:103CD00028802180401CCA2128802180411C02208C
:103CE00029802080491C002029802080491C022036
:103CF00029802080491C012029802080481C022125
:103D000028802180411C342029802080491C0220E9
:103D100029802080491C672029802080491C02209E
:103D200029802080481C842128802180401C022179
:103D300028802180401CA42128802180401C022151
:103D400028802180411CB72029802080481C022126
:103D500028802180401CCF2128802180411C022006
:103D600029802080481CDE2128802180401C0221DF
:103D700028802180401CF22128802180411C0220C3
:103D800029802080481CFE2128802180401C03219E
:103D900028802180411C102029802080491C03207C
:103DA00029802080491C332029802080491C032041
:103DB00029802080491C6D202980208000214FF41B
:103DC000554028802180401C332128802180411CBF
:103DD000002029802080491C342029802080481C14
:103DE000002128802180411C3A2029802080491C04
:103DF000002029802080491C4A2029802080491CDD
:103E0000002029802080491C5C2029802080491CBA
:103E1000002029802080481C812128802180411C8D
:103E2000002029802080481CA62128802180411C58
:103E3000002029802080491CE52029802080491C01
:103E4000012029802080481C132128802180401CCB
:103E5000012128802180401C542128802180411C80
:103E6000012029802080481C822128802180401C3C
:103E7000012128802180411CCA2029802080491CE2
:103E8000022029802080481C002128802180411C9C
:103E9000022029802080491C012029802080481C84
:103EA000022128802180411C342029802080481C48
:103EB000022128802180411C672029802080491C04
:103EC000022029802080491C842029802080481CD1
:103ED000022128802180411CA42029802080491CA7
:103EE000022029802080481CB72128802180401C86
:103EF000022128802180411CCF2029802080491C5C
:103F0000022029802080481CDE2128802180411C3D
:103F1000022029802080491CF22029802080491C11
:103F2000022029802080481CFE2128802180401CFE
:103F3000032128802180411C102029802080481CDA
:103F4000032128802180411C332029802080491CA6
:103F5000032029802080491C6D2029802080002199
:103F60004FF4564028802180411C33202980208036
:103F7000491C002029802080491C34202980208071
:103F8000491C002029802080491C3A20298020805B
:103F9000491C002029802080481C4A21288021803B
:103FA000411C002029802080491C5C202980208021
:103FB000481C002128802180401C812128802180EC
:103FC000411C002029802080491CA62029802080B7
:103FD000491C002029802080481CE5212880218060
:103FE000411C012029802080491C13202980208029
:103FF000491C012029802080491C542029802080D0
:10400000491C012029802080491C82202980208091
:10401000491C012029802080491CCA202980208039
:10402000491C022029802080491C002029802080F2
:10403000491C022029802080491C012029802080E1
:10404000491C022029802080491C3420298020809E
:10405000491C022029802080491C6720298020805B
:10406000481C022128802180411C84202980208036
:10407000491C022029802080491CA42029802080FE
:10408000491C022029802080491CB72029802080DB
:10409000491C022029802080491CCF2029802080B3
:1040A000491C022029802080491CDE202980208094
:1040B000491C022029802080491CF2202980208070
:1040C000491C022029802080491CFE202980208054
:1040D000491C032029802080491C10202980208031
:1040E000491C032029802080491C332029802080FE
:1040F000491C032029802080491C6D2029802080B4
:1041000055204FF4704129802080491CAA20298025
:104110002080491C522029802080491C08202980A9
:104120002080491C002029802080CC204FF4314180
:1041300029802080491C00202980208005204FF400
:1041400036412980208070204FF43741298020801B
:10415000491C2980208001204FF43841298020808B
:10416000491C032029802080491C29802080491C6B
:104170002980208002204FF43C4129802080491C66
:10418000002029802080491C29802080D0204FF4E5
:10419000494129802080491C022029802080491C17
:1041A000502029802080491C29802080491C29809A
:1041B000208000204FF454512980208055204FF456
:1041C0006851298020804FF48850ADF84C00BDF82C
:1041D0004C00ADF84C00BDF84C002880782005F06C
:1041E0000FFA4FF42450ADF84C00BDF84C00ADF878
:1041F0004C00BDF84C00288003F069BDCF21ADF81C
:104200004C10BDF84C10ADF84C10BDF84C10298086
:10421000ADF84C70BDF84C10ADF84C10BDF84C101A
:104220002180C123ADF84C30BDF84C10ADF84C10D6
:10423000BDF84C1021803021ADF84C10BDF84C2059
:10424000ADF84C20BDF84C202280ADF84C00BDF8F4
:104250004C00ADF84C00BDF84C0028806420ADF84F
:104260004C00BDF84C00ADF84C00BDF84C0020806F
:10427000ADF84C80BDF84C00ADF84C00BDF84C00DA
:1042800020801220ADF84C00BDF84C00ADF84C0079
:10429000BDF84C0020808120ADF84C00BDF84C00EA
:1042A000ADF84C00BDF84C002080E820ADF84C0083
:1042B000BDF84C00ADF84C00BDF84C0028808520BE
:1042C000ADF84C00BDF84C00ADF84C00BDF84C000A
:1042D00020801022ADF84C20BDF84C00ADF84C0009
:1042E000BDF84C0020807A20ADF84C00BDF84C00A1
:1042F000ADF84C00BDF84C002080CB20ADF84C0050
:10430000BDF84C00ADF84C00BDF84C0028803920B9
:10431000ADF84C00BDF84C00ADF84C00BDF84C00B9
:1043200020802C20ADF84C00BDF84C00ADF84C00BE
:10433000BDF84C002080ADF84C70BDF84C00ADF8D5
:104340004C00BDF84C0020803420ADF84C00BDF886
:104350004C00ADF84C00BDF84C0020800220ADF8B8
:104360004C00BDF84C00ADF84C00BDF84C0020806E
:10437000F720ADF84C00BDF84C00ADF84C00BDF88E
:104380004C002880ADF84CA0BDF84C00ADF84C00B6
:10439000BDF84C002080EA20ADF84C00BDF84C0080
:1043A000ADF84C00BDF84C002880ADF84C70BDF85D
:1043B0004C00ADF84C00BDF84C002080ADF84C70BE
:1043C000BDF84C00ADF84C00BDF84C002080C0207A
:1043D000ADF84C00BDF84C00ADF84C00BDF84C00F9
:1043E00028801B20ADF84C00BDF84C00ADF84C0007
:1043F000BDF84C002080ADF84C30BDF84C00ADF855
:104400004C00BDF84C002880ADF84C60BDF84C0065
:10441000ADF84C00BDF84C002080C520ADF84C0034
:10442000BDF84C00ADF84C00BDF84C002880ADF84C
:104430004C10BDF84C00ADF84C00BDF84C0020808D
:10444000ADF84C10BDF84C00ADF84C00BDF84C0078
:104450002080C720ADF84C00BDF84C00ADF84C00F2
:10446000BDF84C002880B720ADF84C00BDF84C00DA
:10447000ADF84C00BDF84C0020803620ADF84C0063
:10448000BDF84C00ADF84C00BDF84C002880482029
:10449000ADF84C00BDF84C00ADF84C00BDF84C0038
:1044A00020803A20ADF84C00BDF84C00ADF84C002F
:1044B000BDF84C0028805520ADF84C00BDF84C00EC
:1044C000ADF84C00BDF84C002080ADF84CC0BDF8F4
:1044D0004C00ADF84C00BDF84C002880ADF84C7095
:1044E000BDF84C00ADF84C00BDF84C0020801A20FF
:1044F000ADF84C00BDF84C00ADF84C00BDF84C00D8
:104500002080B620ADF84C00BDF84C00ADF84C0052
:10451000BDF84C0028800A23ADF84C30BDF84C00A3
:10452000ADF84C00BDF84C002080A220ADF84C0046
:10453000BDF84C00ADF84C00BDF84C002080F220D6
:10454000ADF84C00BDF84C00ADF84C00BDF84C0087
:104550002880ADF84C70BDF84C00ADF84C00BDF8AB
:104560004C0020802620ADF84C00BDF84C00ADF882
:104570004C00BDF84C002880ADF84C60BDF84C00F4
:10458000ADF84C00BDF84C002080E020ADF84C00A8
:10459000BDF84C00ADF84C00BDF84C0028800F2051
:1045A000ADF84C00BDF84C10ADF84C10BDF84C10F7
:1045B00021804FF02A0CADF84CC0BDF84C10ADF87E
:1045C0004C10BDF84C1021802821ADF84C10BDF8DE
:1045D0004C10ADF84C10BDF84C1021800821ADF8FE
:1045E0004C10BDF84C80ADF84C80BDF84C80A4F860
:1045F00000804FF00E08ADF84C80BDF84C80ADF84F
:104600004C80BDF84C80A4F80080ADF84C10BDF88B
:104610004C10ADF84C10BDF84C1021805421ADF871
:104620004C10BDF84C10ADF84C10BDF84C1021806A
:10463000A921ADF84C10BDF84C10ADF84C10BDF8E8
:104640004C1021804321ADF84C10BDF84C10ADF852
:104650004C10BDF84C102180ADF84C30BDF84C101A
:10466000ADF84C10BDF84C102180ADF84C00BDF8F1
:104670004C10ADF84C10BDF84C102180ADF84C70CA
:10468000BDF84C10ADF84C10BDF84C102180ADF8C1
:104690004C70BDF84C10ADF84C10BDF84C1021809A
:1046A000ADF84C70BDF84C10ADF84C10BDF84C1086
:1046B0002180ADF84C70BDF84C10ADF84C10BDF831
:1046C0004C102180E121ADF84C10BDF84C10ADF834
:1046D0004C10BDF84C102980ADF84C70BDF84C1052
:1046E000ADF84C10BDF84C1021801521ADF84C10E0
:1046F000BDF84C10ADF84C10BDF84C1021801721BE
:10470000ADF84C10BDF84C10ADF84C10BDF84C1085
:1047100021800721ADF84C10BDF84C10ADF84C10BD
:10472000BDF84C1021801121ADF84C10BDF84C3073
:10473000ADF84C30BDF84C3023800623ADF84C303A
:10474000BDF84C30ADF84C30BDF84C3023802B23F5
:10475000ADF84C30BDF84C80ADF84C80BDF84C80C5
:10476000A4F800804FF05608ADF84C80BDF84C809E
:10477000ADF84C80BDF84C80A4F800804FF03C08A8
:10478000ADF84C80BDF84C80ADF84C80BDF84C8045
:10479000A4F800804FF00508ADF84C80BDF84C80BF
:1047A000ADF84C80BDF84C80A4F80080ADF84C20EA
:1047B000BDF84C20ADF84C20BDF84C202280ADF85F
:1047C0004C00BDF84C20ADF84C20BDF84C202280A8
:1047D0003F22ADF84C20BDF84C80ADF84C80BDF8C0
:1047E0004C80A4F80080ADF84C20BDF84C80ADF8AA
:1047F0004C80BDF84C80A4F80080ADF84C00BDF8AA
:104800004C00ADF84C00BDF84C002080ADF84C30A9
:10481000BDF84C00ADF84C00BDF84C002880ADF858
:104820004C70BDF84C00ADF84C00BDF84C00208039
:10483000ADF84C70BDF84C00ADF84C00BDF84C0024
:104840002080ADF84C60BDF84C00ADF84C00BDF8D0
:104850004C002080ADF84C20BDF84C00ADF84C0069
:10486000BDF84C002080ADF84CC0BDF84C00ADF850
:104870004C00BDF84C002880ADF84C70BDF84C00E1
:10488000ADF84C00BDF84C002080ADF84C70BDF880
:104890004C00ADF84C00BDF84C002080ADF84C70D9
:1048A000BDF84C00ADF84C00BDF84C002080EF2066
:1048B000ADF84C00BDF84C00ADF84C00BDF84C0014
:1048C0002080ADF84C10BDF84C00ADF84C00BDF8A0
:1048D0004C002880782004F065FE2920ADF84C00BB
:1048E000BDF84C00ADF84C00BDF84C00288003F03A
:1048F000EEB9ADF84C00BDF84C00ADF84C00BDF879
:104900004C002880ADF84C60BDF84C00ADF84C0070
:10491000BDF84C002080FE20ADF84C00BDF84C00E6
:10492000ADF84C00BDF84C002080EE20ADF84C00F6
:10493000BDF84C00ADF84C00BDF84C002880DE20DE
:10494000ADF84C00BDF84C00ADF84C00BDF84C0083
:1049500020802122ADF84C20BDF84C00ADF84C0071
:10496000BDF84C002080F120ADF84C00BDF84C00A3
:10497000ADF84C00BDF84C0028800120ADF84C008B
:10498000BDF84C00ADF84C00BDF84C002080DF2095
:10499000ADF84C00BDF84C00ADF84C00BDF84C0033
:1049A00028801020ADF84C00BDF84C00ADF84C004C
:1049B000BDF84C002080C420ADF84C00BDF84C0080
:1049C000ADF84C00BDF84C0028808F20ADF84C00AD
:1049D000BDF84C00ADF84C00BDF84C002080C6205E
:1049E000ADF84C00BDF84C00ADF84C00BDF84C00E3
:1049F00028803846ADF84C70BDF84C30ADF84C30DE
:104A0000BDF84C302380E223ADF84C30BDF84C109B
:104A1000ADF84C10BDF84C102180ADF84C30BDF80D
:104A20004C10ADF84C10BDF84C102180ADF84C3056
:104A3000BDF84C10ADF84C10BDF84C102180BF21D2
:104A4000ADF84C10BDF84C10ADF84C10BDF84C1042
:104A50002980AA21ADF84C10BDF84C10ADF84C10CF
:104A6000BDF84C102180B021ADF84C10BDF84C10B1
:104A7000ADF84C10BDF84C1029800D21ADF84C104C
:104A8000BDF84C10ADF84C10BDF84C102180ADF8BD
:104A90004C00BDF84C10ADF84C10BDF84C10218006
:104AA0000D21ADF84C10BDF84C10ADF84C10BDF810
:104AB0004C102180ADF84C00BDF84C10ADF84C10F6
:104AC000BDF84C1021801121ADF84C10BDF84C10F0
:104AD000ADF84C10BDF84C102180ADF84C00BDF87D
:104AE0004C10ADF84C10BDF84C1021801921ADF8D8
:104AF0004C10BDF84C10ADF84C10BDF84C10218096
:104B0000ADF84C00BDF84C10ADF84C10BDF84C1091
:104B10002180ADF84C20BDF84C10ADF84C10BDF81C
:104B20004C102180ADF84C00BDF84C10ADF84C1085
:104B3000BDF84C1021802D21ADF84C10BDF84C1063
:104B4000ADF84C10BDF84C102180ADF84C00BDF80C
:104B50004C10ADF84C10BDF84C1021803D21ADF843
:104B60004C10BDF84C10ADF84C10BDF84C10218025
:104B7000ADF84C00BDF84C10ADF84C10BDF84C1021
:104B800021805D22ADF84C20BDF84C10ADF84C10E2
:104B9000BDF84C102180ADF84C00BDF84C10ADF8BC
:104BA0004C10BDF84C102180ADF84C20BDF84C10D5
:104BB000ADF84C10BDF84C102180ADF84C00BDF89C
:104BC0004C10ADF84C10BDF84C102180ADF84CC025
:104BD000BDF84C10ADF84C10BDF84C102980802168
:104BE000ADF84C10BDF84C10ADF84C10BDF84C10A1
:104BF0002180ADF84C00BDF84C10ADF84C10BDF85C
:104C00004C1021808B23ADF84C30BDF84C10ADF822
:104C10004C10BDF84C102180ADF84C00BDF84C1084
:104C2000ADF84C10BDF84C1021804FF0960EADF849
:104C30004CE0BDF84C10ADF84C10BDF84C10218084
:104C4000ADF84C00BDF84C10ADF84C10BDF84C1050
:104C50002180B221ADF84C10BDF84C10ADF84C10CD
:104C6000BDF84C102980ADF84C00BDF84C10ADF8E3
:104C70004C10BDF84C102180ADF84C00BDF84C1024
:104C8000ADF84C10BDF84C20214622804FF0020CAC
:104C9000ADF84CC0BDF84C20ADF84C20BDF84C2010
:104CA0002280ADF84C00BDF84C20ADF84C20BDF88A
:104CB0004C202280ADF84C80BDF84C20ADF84C2043
:104CC000BDF84C200A80ADF84C00BDF84C20ADF882
:104CD0004C20BDF84C200A80B322ADF84C20BDF822
:104CE0004C20ADF84C20BDF84C202A80ADF84C008B
:104CF000BDF84C20ADF84C20BDF84C200A80ADF832
:104D00004C00BDF84C20ADF84C20BDF84C200A807A
:104D1000ADF84C00BDF84C20ADF84C20BDF84C204F
:104D20000A80ADF84C00BDF84C20ADF84C20BDF821
:104D30004C200A80ADF84C00BDF84C20ADF84C205A
:104D4000BDF84C200A80ADF84C00BDF84C20ADF801
:104D50004C20BDF84C200A80ADF84C00BDF84C202A
:104D6000ADF84C20BDF84C200A80ADF84C00BDF8E1
:104D70004C20ADF84C20BDF84C200A80ADF84C001A
:104D8000BDF84C20ADF84C20BDF84C200A80ADF8A1
:104D90004C00BDF84C20ADF84C20BDF84C200A80EA
:104DA000ADF84C00BDF84C20ADF84C20BDF84C20BF
:104DB0000A80ADF84C00BDF84C20ADF84C20BDF891
:104DC0004C200A80ADF84C00BDF84C20ADF84C20CA
:104DD000BDF84C200A80ADF84C00BDF84C20ADF871
:104DE0004C20BDF84C200A80ADF84C00BDF84C209A
:104DF000ADF84C20BDF84C200A80ADF84C00BDF851
:104E00004C20ADF84C20BDF84C200A80ADF84C0089
:104E1000BDF84C20ADF84C20BDF84C200A80ADF810
:104E20004C00BDF84C20ADF84C20BDF84C200A8059
:104E3000ADF84C00BDF84C20ADF84C20BDF84C202E
:104E40000A80ADF84C00BDF84C20ADF84C20BDF800
:104E50004C200A80ADF84C00BDF84C20ADF84C2039
:104E6000BDF84C200A80ADF84C00BDF84C20ADF8E0
:104E70004C20BDF84C200A80ADF84C00BDF84C2009
:104E8000ADF84C20BDF84C200A80ADF84C00BDF8C0
:104E90004C20ADF84C20BDF84C200A80B422ADF86F
:104EA0004C20BDF84C20ADF84C20BDF84C202A8099
:104EB0008B22ADF84C20BDF84C20ADF84C20BDF84D
:104EC0004C200A80ADF84C00BDF84C20ADF84C20C9
:104ED000BDF84C200A80ADF84CE0BDF84C20ADF890
:104EE0004C20BDF84C200A80ADF84C00BDF84C2099
:104EF000ADF84C20BDF84C200A80A122ADF84C2022
:104F0000BDF84C20ADF84C20BDF84C200A80ADF81F
:104F10004C00BDF84C20ADF84C20BDF84C200A8068
:104F2000B522ADF84C20BDF84C20ADF84C20BDF8B2
:104F30004C202A80ADF84CC0BDF84C20ADF84C2078
:104F4000BDF84C200A80ADF84C00BDF84C20ADF8FF
:104F50004C20BDF84C200A80ADF84C80BDF84C20A8
:104F6000ADF84C20BDF84C200A80ADF84C00BDF8DF
:104F70004C20ADF84C20BDF84C200A800422ADF83E
:104F80004C20BDF84C30ADF84C30BDF84C300B80A7
:104F9000ADF84C00BDF84C30ADF84C30BDF84C309D
:104FA0000B80B623ADF84C30BDF84C30ADF84C302A
:104FB000BDF84C302B80ADF84C00BDF84C30ADF84E
:104FC0004C30BDF84C300B80ADF84C00BDF84C3087
:104FD000ADF84C30BDF84C300B80B723ADF84C30F9
:104FE000BDF84C30ADF84C30BDF84C302B80ADF8EE
:104FF0004C00BDF84C30ADF84C30BDF84C300B8057
:10500000ADF84C00BDF84C30ADF84C30BDF84C302C
:105010000B803F23ADF84C30BDF84C30ADF84C3030
:10502000BDF84C300B80ADF84C00BDF84C30ADF8FD
:105030004C30BDF84C300B805E23ADF84C30BDF8E1
:105040004C30ADF84C30BDF84C300B80ADF84C0016
:10505000BDF84C30ADF84C30BDF84C300B806423BB
:10506000ADF84C30BDF84C30ADF84C30BDF84C309C
:105070000B80ADF84C00BDF84C30ADF84C30BDF8AD
:105080004C300B808C23ADF84C30BDF84C30ADF873
:105090004C30BDF84C300B80ADF84C00BDF84C30B6
:1050A000ADF84C30BDF84C300B80AC23ADF84C3033
:1050B000BDF84C30ADF84C30BDF84C300B80ADF83D
:1050C0004C00BDF84C30ADF84C30BDF84C300B8086
:1050D000DC23ADF84C30BDF84CC0ADF84CC0BDF889
:1050E0004CC0A1F800C0ADF84C00BDF84CC0ADF804
:1050F0004CC0BDF84CC0A1F800C04FF0700CADF82A
:105100004CC0BDF84CC0ADF84CC0BDF84CC0A1F8C7
:1051100000C0ADF84C00BDF84CC0ADF84CC0BDF8B7
:105120004CC0A1F800C04FF0900CADF84CC0BDF8D9
:105130004CC0ADF84CC0BDF84CC0A1F800C0ADF8F3
:105140004C00BDF84CC0ADF84CC0BDF84CC0A1F847
:1051500000C04FF0EB0CADF84CC0BDF84CC0ADF842
:105160004CC0BDF84CC0A1F800C0ADF84C00BDF873
:105170004CC0ADF84CC0BDF84CC0A1F800C0ADF8B3
:105180004C30BDF84C30ADF84C30BDF84C300B8095
:10519000ADF84C00BDF84C30ADF84C30BDF84C309B
:1051A0000B80B823ADF84C30BDF84C30ADF84C3026
:1051B000BDF84C302B80ADF84C00BDF84C30ADF84C
:1051C0004C30BDF84C300B80ADF84C00BDF84C3085
:1051D000ADF84C30BDF84C300B80ADF84C00BDF84C
:1051E0004C30ADF84C30BDF84C300B80ADF84C0075
:1051F000BDF84C30ADF84C30BDF84C300B80ADF8FC
:105200004C00BDF84C30ADF84C30BDF84C300B8044
:10521000ADF84C00BDF84C30ADF84C30BDF84C301A
:105220000B80ADF84C00BDF84C30ADF84C30BDF8FB
:105230004C300B80ADF84C00BDF84C30ADF84C3024
:10524000BDF84C300B80BA23ADF84C30BDF84C3073
:10525000ADF84C30BDF84C302B802424ADF84C40D8
:10526000BDF84C30ADF84C30BDF84C300B80ADF88B
:105270004C00BDF84C30ADF84C30BDF84C300B80D4
:10528000ADF84C00BDF84C30ADF84C30BDF84C30AA
:105290000B80ADF84C00BDF84C30ADF84C30BDF88B
:1052A0004C300B80C123ADF84C30BDF84C30ADF81C
:1052B0004C30BDF84C302B802023ADF84C30BDF87D
:1052C0004C30ADF84C30BDF84C300B80ADF84C0094
:1052D000BDF84C30ADF84C30BDF84C300B80542349
:1052E000ADF84C30BDF84C30ADF84C30BDF84C301A
:1052F0000B80ADF84C00BDF84C30ADF84C30BDF82B
:105300004C300B80FF23ADF84C30BDF84C30ADF87D
:105310004C30BDF84C300B80ADF84C00BDF84C3033
:10532000ADF84C30BDF84C300B80C223ADF84C309A
:10533000BDF84C30ADF84C30BDF84C302B800A2312
:10534000ADF84C30BDF84C30ADF84C30BDF84C30B9
:105350000B80ADF84C00BDF84C30ADF84C30BDF8CA
:105360004C300B80ADF84C20BDF84C20ADF84C20F3
:10537000BDF84C200A80ADF84C00BDF84C20ADF8CB
:105380004C20BDF84C200A80C322ADF84C20BDF85B
:105390004C20ADF84C20BDF84C202A804FF03C0C3E
:1053A000ADF84CC0BDF84C20ADF84C20BDF84C20F9
:1053B0000A80ADF84C00BDF84C20ADF84C20BDF88B
:1053C0004C200A803A22ADF84C20BDF84C20ADF8B4
:1053D0004C20BDF84C200A80ADF84C00BDF84C20A4
:1053E000ADF84C20BDF84C200A803922ADF84C2095
:1053F000BDF84C20ADF84C20BDF84C200A80ADF82B
:105400004C00BDF84C20ADF84C20BDF84C200A8073
:105410003722ADF84C20BDF84C20ADF84C20BDF83B
:105420004C200A80ADF84C00BDF84C20ADF84C2063
:10543000BDF84C200A80ADF84CC0BDF84C20ADF84A
:105440004C20BDF84C200A80ADF84C00BDF84C2033
:10545000ADF84C20BDF84C200A803622ADF84C2027
:10546000BDF84C20ADF84C20BDF84C200A80ADF8BA
:105470004C00BDF84C20ADF84C20BDF84C200A8003
:105480004FF0320AADF84CA0BDF84C20ADF84C20DE
:10549000BDF84C200A80ADF84C00BDF84C20ADF8AA
:1054A0004C20BDF84C200A804FF02F08ADF84C80FE
:1054B000BDF84C20ADF84C20BDF84C200A80ADF86A
:1054C0004C00BDF84C20ADF84C20BDF84C200A80B3
:1054D0004FF02C0EADF84CE0BDF84C20ADF84C2050
:1054E000BDF84C200A80ADF84C00BDF84C20ADF85A
:1054F0004C20BDF84C200A802927ADF84C70BDF82F
:105500004C20ADF84C20BDF84C200A80ADF84C0082
:10551000BDF84C20ADF84C20BDF84C200A80262266
:10552000ADF84C20BDF84C20ADF84C20BDF84C2017
:105530000A80ADF84C00BDF84C20ADF84C20BDF809
:105540004C200A80ADF84C40BDF84C20ADF84C2002
:10555000BDF84C200A80ADF84C00BDF84C20ADF8E9
:105560004C20BDF84C200A80ADF84C40BDF84C20D2
:10557000ADF84C20BDF84C200A80ADF84C00BDF8C9
:105580004C20ADF84C20BDF84C200A802323ADF808
:105590004C30BDF84C20ADF84C20BDF84C200A80B2
:1055A000ADF84C00BDF84C20ADF84C20BDF84C20B7
:1055B0000A80ADF84CC0BDF84C20ADF84C20BDF8C9
:1055C0004C200A80ADF84C00BDF84C20ADF84C20C2
:1055D000BDF84C200A803622ADF84C20BDF84C2096
:1055E000ADF84C20BDF84C200A80ADF84C00BDF859
:1055F0004C20ADF84C20BDF84C200A80ADF84CA0F2
:10560000BDF84C20ADF84C20BDF84C200A80ADF818
:105610004C00BDF84C20ADF84C20BDF84C200A8061
:10562000ADF84C80BDF84C20ADF84C20BDF84C20B6
:105630000A80ADF84C00BDF84C20ADF84C20BDF808
:105640004C200A80ADF84CE0BDF84C20ADF84C2061
:10565000BDF84C200A80ADF84C00BDF84C20ADF8E8
:105660004C20BDF84C200A80ADF84C70BDF84C20A1
:10567000ADF84C20BDF84C200A80ADF84C00BDF8C8
:105680004C20ADF84C20BDF84C200A802622ADF805
:105690004C20BDF84C20ADF84C20BDF84C200A80C1
:1056A000ADF84C00BDF84C20ADF84C20BDF84C20B6
:1056B0000A80ADF84C40BDF84C20ADF84C20BDF848
:1056C0004C200A80ADF84C00BDF84C20ADF84C20C1
:1056D000BDF84C200A80ADF84C40BDF84C20ADF828
:1056E0004C20BDF84C200A80ADF84C00BDF84C2091
:1056F000ADF84C20BDF84C200A80ADF84C30BDF818
:105700004C20ADF84C20BDF84C200A80ADF84C0080
:10571000BDF84C20ADF84C20BDF84C200A80C422C6
:10572000ADF84C20BDF84C20ADF84C20BDF84C2015
:105730002A806222ADF84C20BDF84C20ADF84C20F8
:10574000BDF84C200A80ADF84C00BDF84C20ADF8F7
:105750004C20BDF84C200A800522ADF84C20BDF845
:105760004C20ADF84C20BDF84C200A80ADF84C0020
:10577000BDF84C20ADF84C20BDF84C200A808422A6
:10578000ADF84C20BDF84C20ADF84C20BDF84C20B5
:105790000A80ADF84C00BDF84C20ADF84C20BDF8A7
:1057A0004C200A80F022ADF84C20BDF84C20ADF81A
:1057B0004C20BDF84C200A80ADF84C00BDF84C20C0
:1057C000ADF84C20BDF84C200A801822ADF84C20D2
:1057D000BDF84C20ADF84C20BDF84C200A80ADF847
:1057E0004C00BDF84C20ADF84C20BDF84C200A8090
:1057F000A422ADF84C20BDF84C20ADF84C20BDF8EB
:105800004C200A80ADF84C00BDF84C20ADF84C207F
:10581000BDF84C200A801822ADF84C20BDF84C2071
:10582000ADF84C20BDF84C200A80ADF84C00BDF816
:105830004C20ADF84C20BDF84C200A805022ADF829
:105840004C20BDF84C20ADF84C20BDF84C200A800F
:10585000ADF84C00BDF84C20ADF84C20BDF84C2004
:105860000A800C22ADF84C20BDF84C20ADF84C203D
:10587000BDF84C200A80ADF84C00BDF84C20ADF8C6
:105880004C20BDF84C200A801722ADF84C20BDF802
:105890004C20ADF84C20BDF84C200A80ADF84C00EF
:1058A000BDF84C20ADF84C20BDF84C200A80952264
:1058B000ADF84C20BDF84C20ADF84C20BDF84C2084
:1058C0000A80ADF84C00BDF84C20ADF84C20BDF876
:1058D0004C200A80F324ADF84C40BDF84C20ADF8C4
:1058E0004C20BDF84C200A80ADF84C00BDF84C208F
:1058F000ADF84C20BDF84C200A80E622ADF84C20D3
:10590000BDF84C20ADF84C20BDF84C200A80ADF815
:105910004C00BDF84C20ADF84C20BDF84C200A805E
:10592000C522ADF84C20BDF84C20ADF84C20BDF898
:105930004C202A803222ADF84C20BDF84C20ADF826
:105940004C20BDF84C200A80ADF84C00BDF84C202E
:10595000ADF84C20BDF84C200A804422ADF84C2014
:10596000BDF84C20ADF84C20BDF84C200A80ADF8B5
:105970004C00BDF84C20ADF84C20BDF84C200A80FE
:105980006522ADF84C20BDF84C20ADF84C20BDF898
:105990004C200A80ADF84C00BDF84C20ADF84C20EE
:1059A000BDF84C200A807622ADF84C20BDF84C2082
:1059B000ADF84C20BDF84C200A80ADF84C00BDF885
:1059C0004C20ADF84C20BDF84C200A808822ADF860
:1059D0004C20BDF84C20ADF84C20BDF84C200A807E
:1059E000ADF84C00BDF84C20ADF84C20BDF84C2073
:1059F0000A80C622ADF84C20BDF84C20ADF84C20F2
:105A0000BDF84C202A802022ADF84C20BDF84C2057
:105A1000ADF84C20BDF84C200A80ADF84C00BDF824
:105A20004C20ADF84C20BDF84C200A801722ADF870
:105A30004C20BDF84C20ADF84C20BDF84C200A801D
:105A4000ADF84C00BDF84C20ADF84C20BDF84C2012
:105A50000A800122ADF84C20BDF84C20ADF84C2056
:105A6000BDF84C200A80ADF84C00BDF84C20ADF8D4
:105A70004C20BDF84C200A80C722ADF84C20BDF860
:105A80004C20ADF84C20BDF84CC0FE4AA2F800C036
:105A9000ADF84C00BDF84CC0ADF84CC0BDF84CC0E2
:105AA000A1F800C0ADF84C00BDF84CC0ADF84CC03A
:105AB000BDF84CC0A1F800C0ADF84C00BDF84CC01A
:105AC000ADF84CC0BDF84CC0A1F800C0ADF84C001A
:105AD000BDF84CC0ADF84CC0BDF84CC0A1F800C03A
